:020000040800F2
:1000000000500020310A00082D0A00082B0A0008C1
:1000100000000000000000000000000000000000E0
:100020000000000000000000000000002D0A000891
:10003000000000000000000029010008C1010008C4
:100040002B0A00082B0A00082B0A00082B0A0008BC
:100050002B0A00082B0A00082B0A00082B0A0008AC
:100060002B0A00082B0A00082B0A00082B0A00089C
:100070002B0A00082B0A00082B0A00082B0A00088C
:100080002B0A00082B0A00082B0A00082B0A00087C
:100090002B0A00082B0A00082B0A00082B0A00086C
:1000A0002B0A00082B0A00082B0A00082B0A00085C
:1000B0002B0A00082B0A00082B0A00082B0A00084C
:1000C000FEE7FEE710B5024800F0CEFB10BDC046CB
:1000D000640E000810B5FFF7F5FF00F09FF803234A
:1000E00068220649064800F0BFF803236822054944
:1000F000054800F0B9F800F0F1F8FEE71C0E000822
:10010000C1000008230E0008C3000008704710B5A6
:100110000449080000F0F2FC00F012FD00F000FDC0
:1001200010BDC0460048E8012148224A016810B5C8
:1001300089008958204B214C1960216889008A5810
:100140005A60EFF30980043804600438056004380D
:1001500006600438076044464D4656465F460438FC
:100160000460043805600438066004380760334AC8
:1001700013681860324A1368186804680430056808
:1001800004300668043007680430A346AA46B14626
:10019000B84604680430056804300668043007680F
:1001A000043080F3098870472368036010BDC0469F
:1001B00040000020240000201C00002044000020FB
:1001C00030B5104B1B78002B13D00F4B0F491B6819
:1001D0000868013B0E4A834208D100231360802344
:1001E0000C4A5B0511680B43136030BD0B6801338B
:1001F000F4E70124002508490A684B6812196B418D
:100200000CC1F2E73C000020380000204000002034
:100210004400002004ED00E00000002010B5FFF7CE
:1002200076FF00F04CF800F095F8FF21FE2000F07A
:10023000FDFC0021FF2000F0F9FC10BD1C00002097
:1002400020000020002310B5064A99008C58002C8D
:1002500004D1536988500133536110BD0133052B1C
:10026000F3D1FAE724000020F7B506004C20170070
:100270000091019300F038F8041E1ED038001030B1
:1002800000F048F8050020602000019B00996360A1
:100290006764A664083000F065F82000FFF7D2FF1D
:1002A00080222B1F52041A600022043B1E60403D36
:1002B000043B23601A60AB42FAD12000FEBD70B54A
:1002C0000025054C290014222000257600F03AF87C
:1002D0006561E561256270BD240000200122014BAB
:1002E0001A7670472400002008490300084A08686D
:1002F000121A9A4207D99A0702D09B0801339B0031
:10030000C3180B6070470020FCE7C046480000207F
:100310004C10002010B5094C094922680300891AC5
:100320000020994208D9990702D09B0801339B000D
:10033000D118043B2160D01810BDC04648000020F1
:100340004C10002003008218934200D170471970AE
:100350000133F9E7014B024A1A6070474800002058
:100360004C00002003000A7801311A700133002A82
:10037000F9D170470C4B03221B6810B5CB401340DA
:100380000A4A1268012B05D0022B0BD0002B08D093
:1003900000F06AFC1006000F00F03AFB044B1B68EB
:1003A000584310BD0348FCE74C1002400C100240BB
:1003B000100000200024F40000B506280BD800F03F
:1003C00097FC041015190B1B1D0080230C4A5B04BD
:1003D00011680B43136000BD094A802311685B005C
:1003E000F7E78023064A5B021168F2E7054A01231A
:1003F0001168EEE7024AFAE7034AEEE7024AF6E737
:1004000000100240081002405010024000B50628BB
:100410000AD800F06DFC040E12170A191B000C4AD2
:100420000C4913680B40136000BD094A13680A4960
:10043000F8E7074A09491368F4E7094A01211368F4
:100440008B43F0E7024AF9E7064AEFE7054AF5E78A
:1004500000100240FFFFFFFEFFFEFFFFFFFFFEFF59
:10046000081002405010024000B506280AD80C4B74
:10047000196800F03DFC04080A0C0E10120010224E
:100480000A431A6000BD0822FAE74022F8E7042276
:10049000F6E72022F4E70222F2E70122F0E7C04665
:1004A0001810024000B506280AD80C4B196800F055
:1004B0001FFC04080A0C0E10120010220A431A60D6
:1004C00000BD0822FAE74022F8E70422F6E72022DE
:1004D000F4E70222F2E70122F0E7C04610100240E2
:1004E00000B506280AD80C4B1A6800F001FC040875
:1004F0000A0C0E10120010218A431A6000BD082158
:10050000FAE74021F8E70421F6E72021F4E7022189
:10051000F2E70121F0E7C0461010024010B50628AE
:100520001DD8104B00F0E4FB04080B0E111417004B
:100530001868C006C00F10BD18680007FAE71868F1
:100540004006F7E718684007F4E718688006F1E707
:1005500018688007EEE7186801231840EBE700F001
:1005600083FBC04614100240002300B5062809D8BA
:1005700000F0BEFB040A120E161A1C000C4B1B687E
:100580009B01DB0F180000BD094B1B689B03F8E7BC
:10059000074B1B685B07F4E7064B1B689B07F0E7FC
:1005A000034B1B689B05ECE7034BFAE7024BF4E7B0
:1005B00000100240081002405010024010B5040024
:1005C0002000FFF7D1FF0028FAD010BD8023034A96
:1005D000DB0411680B4313607047C0464C100240A7
:1005E000024A034913680B40136070474C100240E5
:1005F000FFFFFFFB00B5042811D800F079FB0309C9
:100600001011170003230C4A11680B43136006E016
:10061000032309490A689A43013B13430B6000BD59
:10062000032305490A689A43023BF6E70321024A7D
:1006300013688B43EAE7C0460C100240034A0449A2
:10064000136880040B401843106070470C10024080
:10065000FFFFC3FF034A0449136880050B4018439A
:10066000106070470C100240FFFF3FFF034A04492F
:10067000136800040B401843106070470C100240D0
:10068000FFFFFEFF034A0449136800020B401843B2
:10069000106070470C100240FFF8FFFF034A044946
:1006A0001368C0020B401843106070470C100240E2
:1006B000FFC7FFFFF021034A000113688B43184373
:1006C000106070470C100240034A0449136840034D
:1006D0000B4018431060704704100240FF1FFFFFDB
:1006E000044B05491A6880040A401A601A681043CE
:1006F000186070474C100240FFFFF3FF044B0549A0
:100700001A6880020A401A601A681043186070471D
:100710004C100240FFF3FFFF0321044B1A688A4389
:100720001A601A6802431A607047C0464C100240B3
:100730000C21044B80001A688A431A601A6810431F
:10074000186070474C100240134B10B598421BD0F4
:100750000AD8124B984219D0114B984218D0114A1E
:100760000223904207D010BD0F4B984212D00F4B7E
:100770009842F8D100230320984099400C4C2268FD
:1007800082430A432260EEE71023F4E70A23F2E7EC
:100790000C23F0E71223EEE7007800400048004009
:1007A0000054004000440040007C004000380140FC
:1007B0004C100240094B10B5984205D10A21084B54
:1007C0001868FFF7D7FD10BD064B984202D10021F3
:1007D000054BF5E70221024BF2E7C0460048004016
:1007E0000C0000200038014008000020C023A02297
:1007F0001B06C018074B52011B68904206D8064AD8
:100800005B0510685B0F00D040007047034A9B04F3
:100810001068F7E70C1002400C00002008000020D0
:10082000074A03001068074A0C2110B5934203D011
:10083000054A934202D11021FFF79CFD10BDC0462E
:100840000C0000200054004000780040034B984208
:1008500002D1034B18687047024BFBE700300140A0
:10086000080000200C00002070B505790400012D5F
:1008700040D12800FFF7A0FD2800FFF79FFEE07998
:10088000FFF718FF207AFFF7FDFE607AFFF706FFFB
:100890001B4800F04FF8A07900F010FA0020FFF795
:1008A000B5FD802317499B040A6815001D401A42B4
:1008B000FAD100F0DDF9607900F0EAF92078FFF76D
:1008C000BDFE6088FFF7C6FE2079FFF7CFFE280047
:1008D000FFF772FD2800FFF771FE2800FFF78AFE80
:1008E000094BE2681A60094B22691A60084B626979
:1008F0001A6070BD0320FFF75FFD0320BDE7C0460F
:100900001C07000000100240100000200C00002016
:100910000800002003680B430360704703688B43A3
:1009200003607047036819430160704703688B4395
:1009300003607047054B4209D2181F2318401E3B25
:10094000834011680B4313607047C046001002409B
:100950001F21430908401E398140034A9B181A6829
:100960008A431A607047C04600100240064A430995
:100970009B181F2210401E3A8240196811431960CB
:1009800019689143196070470010024010B5FFF7D5
:10099000D1FF10BD10B5FFF7DBFF10BD034A0449BE
:1009A000136800060B400343136070470C100240AD
:1009B000FFFFFFF0012802D0052807D070478023F1
:1009C000054ADB0211680B431360F7E78023034AF3
:1009D000DB001168F7E7C0460010024050100240EB
:1009E000012802D0052806D07047054A054913683A
:1009F0000B401360F8E7044A04491368F8E7C0465F
:100A000000100240FFFFFBFF50100240FFFBFFFF02
:100A100001231A00072804D90B2804D8073883407B
:100A20009AB2100070470638F9E7FEE770470000F9
:100A300010B5164B164A17498B4218D30021164A97
:100A4000934217D38023154A9B001168144C0B4323
:100A50001360144B9C420FD3134C144B9C420ED387
:100A6000FFF738FB124C134B9C420BD310BD01CA4D
:100A700001C3E1E702C3E3E708CC9847E9E708CC04
:100A80009847EAE708CC9847EDE7C0460000002009
:100A9000800E0008140000204C10002014ED00E02F
:100AA000800E0008800E0008800E0008800E0008EE
:100AB000800E0008800E0008024B0002000A186039
:100AC0007047C04614E000E0024B18680002000ABC
:100AD0007047C04614E000E0024B18680002000AAC
:100AE0007047C04618E000E00421034A084013683C
:100AF0008B4303431360704710E000E00B0010B518
:100B00000100180000F0FEF8441E0420FFF7ECFF7F
:100B10002402024B240A01201C6010BD14E000E0F6
:100B20000223024A11680B431360704710E000E093
:100B30000221024A13688B431360704710E000E003
:100B40000123024A11680B431360704710E000E074
:100B50000121024A13688B431360704710E000E0E4
:100B6000024B1868C003C00F7047C04610E000E099
:100B70000022014B1A60704718E000E0024B186831
:100B80000002000A7047C0461CE000E0044A430926
:100B90009B009B181F2210401E3A82401A6070472B
:100BA00000E100E0044A43099B009B181F2210400B
:100BB0001E3A82401A60704780E100E0064A43090D
:100BC0009B009B181F2210401E3A82401B68134056
:100BD0005A1E9341D8B2704700E200E0044A43092C
:100BE0009B009B181F2210401E3A82401A607047DB
:100BF00000E200E0044A43099B009B181F221040BA
:100C00001E3A82401A60704780E200E0064A4309BB
:100C10009B009B181F2210401E3A82401B68134005
:100C20005A1E9341D8B2704700E100E010B51F286A
:100C300012D90F2318400438C0B28308084A9B0019
:100C40001824C0002040E734844081409B181A6873
:100C5000A2430A431A6010BD8308024A9B00EFE7D3
:100C600018ED00E000E400E0FEE710B5FFF7FCFF40
:100C70000223024A11680B431360704700200240B0
:100C80000221024A13688B43136070470020024020
:100C90000121034A13688B43034313607047C04626
:100CA00000200240024B034A1A60034A1A60704750
:100CB00014200240C8D9EAFB272625240A4A0B4BF8
:100CC00011680B40012808D0022809D0002802D161
:100CD000802109010B431360704780214901F9E726
:100CE000C0235B01F6E7C04600700040FFE7FFFF4E
:100CF00002B4714649084900095C49008E4402BCAF
:100D00007047C046002243088B4274D303098B42CC
:100D10005FD3030A8B4244D3030B8B4228D3030CCB
:100D20008B420DD3FF22090212BA030C8B4202D36D
:100D30001212090265D0030B8B4219D300E0090A95
:100D4000C30B8B4201D3CB03C01A5241830B8B429E
:100D500001D38B03C01A5241430B8B4201D34B0387
:100D6000C01A5241030B8B4201D30B03C01A5241EC
:100D7000C30A8B4201D3CB02C01A5241830A8B4271
:100D800001D38B02C01A5241430A8B4201D34B025A
:100D9000C01A5241030A8B4201D30B02C01A5241BE
:100DA000CDD2C3098B4201D3CB01C01A5241830972
:100DB0008B4201D38B01C01A524143098B4201D3AC
:100DC0004B01C01A524103098B4201D30B01C01AD7
:100DD0005241C3088B4201D3CB00C01A5241830851
:100DE0008B4201D38B00C01A524143088B4201D37E
:100DF0004B00C01A5241411A00D2014652411046DE
:100E00007047FFE701B5002000F006F802BDC046BC
:100E10000029F7D076E770477047C0465461736B7E
:100E20002031005461736B2032000000000000008C
:100E30000000020A0000000080841E0080841E0062
:100E400080841E000000000000000000000001007F
:100E5000000000000024F4000024F4000024F4004A
:100E6000000000000100010000010000000000007F
:100E70000048E8010048E8010048E80100000000DF
:100E8000060000000000000068FF1F0068FF1F0050
:040E900068FF1F00D8
:0400000508000A31B4
:00000001FF
